{
  "abi": [
    {
      "inputs": [],
      "name": "plonkVerifier",
      "outputs": [
        {
          "internalType": "contract BaseUltraVerifier",
          "name": "",
          "type": "address"
        }
      ],
      "stateMutability": "view",
      "type": "function"
    },
    {
      "inputs": [
        {
          "internalType": "bytes32",
          "name": "",
          "type": "bytes32"
        }
      ],
      "name": "proofs",
      "outputs": [
        {
          "internalType": "bool",
          "name": "",
          "type": "bool"
        }
      ],
      "stateMutability": "view",
      "type": "function"
    },
    {
      "inputs": [
        {
          "internalType": "bytes",
          "name": "_proof",
          "type": "bytes"
        },
        {
          "internalType": "bytes32[]",
          "name": "_publicInputs",
          "type": "bytes32[]"
        }
      ],
      "name": "verifyProof",
      "outputs": [
        {
          "internalType": "bool",
          "name": "",
          "type": "bool"
        }
      ],
      "stateMutability": "nonpayable",
      "type": "function"
    },
    {
      "inputs": [],
      "name": "version",
      "outputs": [
        {
          "internalType": "uint256",
          "name": "",
          "type": "uint256"
        }
      ],
      "stateMutability": "view",
      "type": "function"
    }
  ],
  "bytecode": {
    "object": "0x608060405234801561001057600080fd5b5061043a806100206000396000f3fe608060405234801561001057600080fd5b506004361061004c5760003560e01c8063444d95b01461005157806354fd4d5014610089578063bbcb7c74146100a0578063e4886e50146100b3575b600080fd5b61007461005f3660046101e2565b60026020526000908152604090205460ff1681565b60405190151581526020015b60405180910390f35b61009260015481565b604051908152602001610080565b6100746100ae366004610211565b6100de565b6000546100c6906001600160a01b031681565b6040516001600160a01b039091168152602001610080565b6000808484846040516020016100f693929190610328565b60408051601f1981840301815291815281516020928301206000818152600290935291205490915060ff161561013f5760009081526002602052604090205460ff1690506101db565b60008054604051633a94343960e21b81526001600160a01b039091169063ea50d0e49061017490899089908990600401610369565b602060405180830381865afa158015610191573d6000803e3d6000fd5b505050506040513d601f19601f820116820180604052508101906101b591906103e2565b905080156101d7576000828152600260205260409020805460ff191660011790555b9150505b9392505050565b6000602082840312156101f457600080fd5b5035919050565b634e487b7160e01b600052604160045260246000fd5b60008060006040848603121561022657600080fd5b833567ffffffffffffffff8082111561023e57600080fd5b818601915086601f83011261025257600080fd5b81358181111561026157600080fd5b6020888183860101111561027457600080fd5b80840196508195508088013593508284111561028f57600080fd5b838801935088601f8501126102a357600080fd5b83359150828211156102b7576102b76101fb565b8160051b604051601f19603f830116810181811086821117156102dc576102dc6101fb565b60405292835281830193508481018201928a8411156102fa57600080fd5b948201945b83861015610318578535855294820194938201936102ff565b8096505050505050509250925092565b828482376000818401818152835160209190828601845b8281101561035b5781518452928401929084019060010161033f565b509198975050505050505050565b60408152826040820152828460608301376000606084830101526000601f19601f8501168201606081016020606085840301818601528186518084526080850191508288019450600093505b808410156103d557845182529382019360019390930192908201906103b5565b5098975050505050505050565b6000602082840312156103f457600080fd5b815180151581146101db57600080fdfea2646970667358221220626b1706b28f5b14d029f5810efbf0b365ff8d5df3f4c425d9401392331f5fb064736f6c63430008150033",
    "linkReferences": {}
  },
  "methodIdentifiers": {
    "plonkVerifier()": "e4886e50",
    "proofs(bytes32)": "444d95b0",
    "verifyProof(bytes,bytes32[])": "bbcb7c74",
    "version()": "54fd4d50"
  },
  "id": 22
}