{
  "abi": [
    {
      "inputs": [],
      "name": "plonkVerifier",
      "outputs": [
        {
          "internalType": "contract BaseUltraVerifier",
          "name": "",
          "type": "address"
        }
      ],
      "stateMutability": "view",
      "type": "function"
    },
    {
      "inputs": [
        {
          "internalType": "bytes32",
          "name": "",
          "type": "bytes32"
        }
      ],
      "name": "proofs",
      "outputs": [
        {
          "internalType": "bool",
          "name": "",
          "type": "bool"
        }
      ],
      "stateMutability": "view",
      "type": "function"
    },
    {
      "inputs": [
        {
          "internalType": "bytes",
          "name": "_proof",
          "type": "bytes"
        },
        {
          "internalType": "bytes32[]",
          "name": "_publicInputs",
          "type": "bytes32[]"
        }
      ],
      "name": "verifyProof",
      "outputs": [
        {
          "internalType": "bool",
          "name": "",
          "type": "bool"
        }
      ],
      "stateMutability": "nonpayable",
      "type": "function"
    }
  ],
  "bytecode": {
    "object": "0x608060405234801561001057600080fd5b506104c2806100206000396000f3fe608060405234801561001057600080fd5b50600436106100415760003560e01c8063444d95b014610046578063bbcb7c741461007e578063e4886e5014610091575b600080fd5b61006961005436600461020e565b60016020526000908152604090205460ff1681565b60405190151581526020015b60405180910390f35b61006961008c366004610256565b6100d6565b6000546100b19073ffffffffffffffffffffffffffffffffffffffff1681565b60405173ffffffffffffffffffffffffffffffffffffffff9091168152602001610075565b6000808484846040516020016100ee9392919061038b565b604080517fffffffffffffffffffffffffffffffffffffffffffffffffffffffffffffffe0818403018152908290528051602090910120600080547fea50d0e40000000000000000000000000000000000000000000000000000000084529193509173ffffffffffffffffffffffffffffffffffffffff9091169063ea50d0e490610181908990899089906004016103cc565b602060405180830381865afa15801561019e573d6000803e3d6000fd5b505050506040513d601f19601f820116820180604052508101906101c29190610463565b9050801561020557600082815260016020819052604090912080547fffffffffffffffffffffffffffffffffffffffffffffffffffffffffffffff001690911790555b95945050505050565b60006020828403121561022057600080fd5b5035919050565b7f4e487b7100000000000000000000000000000000000000000000000000000000600052604160045260246000fd5b60008060006040848603121561026b57600080fd5b833567ffffffffffffffff8082111561028357600080fd5b818601915086601f83011261029757600080fd5b8135818111156102a657600080fd5b602088818386010111156102b957600080fd5b8084019650819550808801359350828411156102d457600080fd5b838801935088601f8501126102e857600080fd5b83359150828211156102fc576102fc610227565b8160051b6040517fffffffffffffffffffffffffffffffffffffffffffffffffffffffffffffffe0603f8301168101818110868211171561033f5761033f610227565b60405292835281830193508481018201928a84111561035d57600080fd5b948201945b8386101561037b57853585529482019493820193610362565b8096505050505050509250925092565b828482376000818401818152835160209190828601845b828110156103be578151845292840192908401906001016103a2565b509198975050505050505050565b604081528260408201528284606083013760006060848301015260007fffffffffffffffffffffffffffffffffffffffffffffffffffffffffffffffe0601f8501168201606081016020606085840301818601528186518084526080850191508288019450600093505b808410156104565784518252938201936001939093019290820190610436565b5098975050505050505050565b60006020828403121561047557600080fd5b8151801515811461048557600080fd5b939250505056fea2646970667358221220fae88a15a2ddf1e31cd6bb9a354e7429e633da0a7fe04f4220c02b4ce56cf7a564736f6c63430008150033",
    "linkReferences": {}
  },
  "methodIdentifiers": {
    "plonkVerifier()": "e4886e50",
    "proofs(bytes32)": "444d95b0",
    "verifyProof(bytes,bytes32[])": "bbcb7c74"
  },
  "id": 0
}