{
  "abi": [
    {
      "inputs": [
        {
          "internalType": "address",
          "name": "_bytecode",
          "type": "address"
        }
      ],
      "stateMutability": "nonpayable",
      "type": "constructor"
    },
    {
      "inputs": [
        {
          "internalType": "address",
          "name": "",
          "type": "address"
        }
      ],
      "name": "isProven",
      "outputs": [
        {
          "internalType": "bool",
          "name": "",
          "type": "bool"
        }
      ],
      "stateMutability": "view",
      "type": "function"
    },
    {
      "inputs": [],
      "name": "prove",
      "outputs": [
        {
          "internalType": "bool",
          "name": "",
          "type": "bool"
        }
      ],
      "stateMutability": "view",
      "type": "function"
    }
  ],
  "bytecode": {
    "object": "0x608060405234801561001057600080fd5b5060405161019938038061019983398101604081905261002f91610054565b600080546001600160a01b0319166001600160a01b0392909216919091179055610084565b60006020828403121561006657600080fd5b81516001600160a01b038116811461007d57600080fd5b9392505050565b610106806100936000396000f3fe6080604052348015600f57600080fd5b506004361060325760003560e01c806345152ae3146037578063ca5b4778146075575b600080fd5b6000805473ffffffffffffffffffffffffffffffffffffffff1681526001602052604090205460ff165b604051901515815260200160405180910390f35b606160803660046095565b60016020526000908152604090205460ff1681565b60006020828403121560a657600080fd5b813573ffffffffffffffffffffffffffffffffffffffff8116811460c957600080fd5b939250505056fea26469706673582212201ee195998fd5925f4889cc473f8a2304803b1f6e1e95aafca9c905334438efeb64736f6c63430008150033",
    "linkReferences": {}
  },
  "methodIdentifiers": {
    "isProven(address)": "ca5b4778",
    "prove()": "45152ae3"
  },
  "id": 22
}